{"abi":[{"type":"constructor","inputs":[],"stateMutability":"nonpayable"},{"type":"function","name":"balances","inputs":[{"name":"","type":"address","internalType":"address"}],"outputs":[{"name":"","type":"uint256","internalType":"uint256"}],"stateMutability":"view"},{"type":"function","name":"deposit","inputs":[{"name":"amount","type":"uint256","internalType":"uint256"}],"outputs":[],"stateMutability":"nonpayable"},{"type":"function","name":"flashLoan","inputs":[{"name":"amount","type":"uint256","internalType":"uint256"}],"outputs":[],"stateMutability":"nonpayable"},{"type":"function","name":"isSolved","inputs":[],"outputs":[{"name":"","type":"bool","internalType":"bool"}],"stateMutability":"view"},{"type":"function","name":"token","inputs":[],"outputs":[{"name":"","type":"address","internalType":"contract Token"}],"stateMutability":"view"},{"type":"function","name":"withdraw","inputs":[{"name":"amount","type":"uint256","internalType":"uint256"}],"outputs":[],"stateMutability":"nonpayable"}],"bytecode":{"object":"0x6080604052348015600e575f5ffd5b506040516019906074565b604051809103905ff0801580156031573d5f5f3e3d5ffd5b505f5f6101000a81548173ffffffffffffffffffffffffffffffffffffffff021916908373ffffffffffffffffffffffffffffffffffffffff1602179055506081565b611ada80610a9a83390190565b610a0c8061008e5f395ff3fe608060405234801561000f575f5ffd5b5060043610610060575f3560e01c806327e235e3146100645780632e1a7d4d1461009457806364d98f6e146100b05780639ab603b9146100ce578063b6b55f25146100ea578063fc0c546a14610106575b5f5ffd5b61007e6004803603810190610079919061065b565b610124565b60405161008b919061069e565b60405180910390f35b6100ae60048036038101906100a991906106e1565b610139565b005b6100b861022b565b6040516100c59190610726565b60405180910390f35b6100e860048036038101906100e391906106e1565b6102cb565b005b61010460048036038101906100ff91906106e1565b6104e5565b005b61010e6105d9565b60405161011b919061079a565b60405180910390f35b6001602052805f5260405f205f915090505481565b8060015f3373ffffffffffffffffffffffffffffffffffffffff1673ffffffffffffffffffffffffffffffffffffffff1681526020019081526020015f205f82825461018591906107e0565b925050819055505f5f9054906101000a900473ffffffffffffffffffffffffffffffffffffffff1673ffffffffffffffffffffffffffffffffffffffff1663a9059cbb33836040518363ffffffff1660e01b81526004016101e7929190610822565b6020604051808303815f875af1158015610203573d5f5f3e3d5ffd5b505050506040513d601f19601f820116820180604052508101906102279190610873565b5050565b5f5f5f5f9054906101000a900473ffffffffffffffffffffffffffffffffffffffff1673ffffffffffffffffffffffffffffffffffffffff166370a08231306040518263ffffffff1660e01b8152600401610286919061089e565b602060405180830381865afa1580156102a1573d5f5f3e3d5ffd5b505050506040513d601f19601f820116820180604052508101906102c591906108cb565b14905090565b5f5f5f9054906101000a900473ffffffffffffffffffffffffffffffffffffffff1673ffffffffffffffffffffffffffffffffffffffff166370a08231306040518263ffffffff1660e01b8152600401610325919061089e565b602060405180830381865afa158015610340573d5f5f3e3d5ffd5b505050506040513d601f19601f8201168201806040525081019061036491906108cb565b90505f5f9054906101000a900473ffffffffffffffffffffffffffffffffffffffff1673ffffffffffffffffffffffffffffffffffffffff1663a9059cbb33846040518363ffffffff1660e01b81526004016103c1929190610822565b6020604051808303815f875af11580156103dd573d5f5f3e3d5ffd5b505050506040513d601f19601f820116820180604052508101906104019190610873565b505f5f5f9054906101000a900473ffffffffffffffffffffffffffffffffffffffff1673ffffffffffffffffffffffffffffffffffffffff166370a08231306040518263ffffffff1660e01b815260040161045c919061089e565b602060405180830381865afa158015610477573d5f5f3e3d5ffd5b505050506040513d601f19601f8201168201806040525081019061049b91906108cb565b9050818110156104e0576040517f08c379a00000000000000000000000000000000000000000000000000000000081526004016104d790610950565b60405180910390fd5b505050565b5f5f9054906101000a900473ffffffffffffffffffffffffffffffffffffffff1673ffffffffffffffffffffffffffffffffffffffff166323b872dd3330846040518463ffffffff1660e01b81526004016105429392919061096e565b6020604051808303815f875af115801561055e573d5f5f3e3d5ffd5b505050506040513d601f19601f820116820180604052508101906105829190610873565b508060015f3373ffffffffffffffffffffffffffffffffffffffff1673ffffffffffffffffffffffffffffffffffffffff1681526020019081526020015f205f8282546105cf91906109a3565b9250508190555050565b5f5f9054906101000a900473ffffffffffffffffffffffffffffffffffffffff1681565b5f5ffd5b5f73ffffffffffffffffffffffffffffffffffffffff82169050919050565b5f61062a82610601565b9050919050565b61063a81610620565b8114610644575f5ffd5b50565b5f8135905061065581610631565b92915050565b5f602082840312156106705761066f6105fd565b5b5f61067d84828501610647565b91505092915050565b5f819050919050565b61069881610686565b82525050565b5f6020820190506106b15f83018461068f565b92915050565b6106c081610686565b81146106ca575f5ffd5b50565b5f813590506106db816106b7565b92915050565b5f602082840312156106f6576106f56105fd565b5b5f610703848285016106cd565b91505092915050565b5f8115159050919050565b6107208161070c565b82525050565b5f6020820190506107395f830184610717565b92915050565b5f819050919050565b5f61076261075d61075884610601565b61073f565b610601565b9050919050565b5f61077382610748565b9050919050565b5f61078482610769565b9050919050565b6107948161077a565b82525050565b5f6020820190506107ad5f83018461078b565b92915050565b7f4e487b71000000000000000000000000000000000000000000000000000000005f52601160045260245ffd5b5f6107ea82610686565b91506107f583610686565b925082820390508181111561080d5761080c6107b3565b5b92915050565b61081c81610620565b82525050565b5f6040820190506108355f830185610813565b610842602083018461068f565b9392505050565b6108528161070c565b811461085c575f5ffd5b50565b5f8151905061086d81610849565b92915050565b5f60208284031215610888576108876105fd565b5b5f6108958482850161085f565b91505092915050565b5f6020820190506108b15f830184610813565b92915050565b5f815190506108c5816106b7565b92915050565b5f602082840312156108e0576108df6105fd565b5b5f6108ed848285016108b7565b91505092915050565b5f82825260208201905092915050565b7f4661696c656420746f206578656375746520666c617368206c6f616e000000005f82015250565b5f61093a601c836108f6565b915061094582610906565b602082019050919050565b5f6020820190508181035f8301526109678161092e565b9050919050565b5f6060820190506109815f830186610813565b61098e6020830185610813565b61099b604083018461068f565b949350505050565b5f6109ad82610686565b91506109b883610686565b92508282019050808211156109d0576109cf6107b3565b5b9291505056fea2646970667358221220bbd1171e56de53779c1c7c611dcf98de3c19ac1ed372e05c04d48cad256637ca64736f6c634300081c0033608060405234801561000f575f5ffd5b506040518060400160405280600381526020017f58595a00000000000000000000000000000000000000000000000000000000008152506040518060400160405280600381526020017f58595a0000000000000000000000000000000000000000000000000000000000815250816003908161008b919061045c565b50806004908161009b919061045c565b5050506100b633670de0b6b3a76400006100bb60201b60201c565b61062b565b5f73ffffffffffffffffffffffffffffffffffffffff168273ffffffffffffffffffffffffffffffffffffffff1603610129576040517f08c379a000000000000000000000000000000000000000000000000000000000815260040161012090610585565b60405180910390fd5b61013a5f838361021560201b60201c565b8060025f82825461014b91906105d0565b92505081905550805f5f8473ffffffffffffffffffffffffffffffffffffffff1673ffffffffffffffffffffffffffffffffffffffff1681526020019081526020015f205f82825401925050819055508173ffffffffffffffffffffffffffffffffffffffff165f73ffffffffffffffffffffffffffffffffffffffff167fddf252ad1be2c89b69c2b068fc378daa952ba7f163c4a11628f55a4df523b3ef836040516101f89190610612565b60405180910390a36102115f838361021a60201b60201c565b5050565b505050565b505050565b5f81519050919050565b7f4e487b71000000000000000000000000000000000000000000000000000000005f52604160045260245ffd5b7f4e487b71000000000000000000000000000000000000000000000000000000005f52602260045260245ffd5b5f600282049050600182168061029a57607f821691505b6020821081036102ad576102ac610256565b5b50919050565b5f819050815f5260205f209050919050565b5f6020601f8301049050919050565b5f82821b905092915050565b5f6008830261030f7fffffffffffffffffffffffffffffffffffffffffffffffffffffffffffffffff826102d4565b61031986836102d4565b95508019841693508086168417925050509392505050565b5f819050919050565b5f819050919050565b5f61035d61035861035384610331565b61033a565b610331565b9050919050565b5f819050919050565b61037683610343565b61038a61038282610364565b8484546102e0565b825550505050565b5f5f905090565b6103a1610392565b6103ac81848461036d565b505050565b5b818110156103cf576103c45f82610399565b6001810190506103b2565b5050565b601f821115610414576103e5816102b3565b6103ee846102c5565b810160208510156103fd578190505b610411610409856102c5565b8301826103b1565b50505b505050565b5f82821c905092915050565b5f6104345f1984600802610419565b1980831691505092915050565b5f61044c8383610425565b9150826002028217905092915050565b6104658261021f565b67ffffffffffffffff81111561047e5761047d610229565b5b6104888254610283565b6104938282856103d3565b5f60209050601f8311600181146104c4575f84156104b2578287015190505b6104bc8582610441565b865550610523565b601f1984166104d2866102b3565b5f5b828110156104f9578489015182556001820191506020850194506020810190506104d4565b868310156105165784890151610512601f891682610425565b8355505b6001600288020188555050505b505050505050565b5f82825260208201905092915050565b7f45524332303a206d696e7420746f20746865207a65726f2061646472657373005f82015250565b5f61056f601f8361052b565b915061057a8261053b565b602082019050919050565b5f6020820190508181035f83015261059c81610563565b9050919050565b7f4e487b71000000000000000000000000000000000000000000000000000000005f52601160045260245ffd5b5f6105da82610331565b91506105e583610331565b92508282019050808211156105fd576105fc6105a3565b5b92915050565b61060c81610331565b82525050565b5f6020820190506106255f830184610603565b92915050565b6114a2806106385f395ff3fe608060405234801561000f575f5ffd5b50600436106100a7575f3560e01c8063395093511161006f578063395093511461016557806370a082311461019557806395d89b41146101c5578063a457c2d7146101e3578063a9059cbb14610213578063dd62ed3e14610243576100a7565b806306fdde03146100ab578063095ea7b3146100c957806318160ddd146100f957806323b872dd14610117578063313ce56714610147575b5f5ffd5b6100b3610273565b6040516100c09190610c36565b60405180910390f35b6100e360048036038101906100de9190610ce7565b610303565b6040516100f09190610d3f565b60405180910390f35b610101610325565b60405161010e9190610d67565b60405180910390f35b610131600480360381019061012c9190610d80565b61032e565b60405161013e9190610d3f565b60405180910390f35b61014f61035c565b60405161015c9190610deb565b60405180910390f35b61017f600480360381019061017a9190610ce7565b610364565b60405161018c9190610d3f565b60405180910390f35b6101af60048036038101906101aa9190610e04565b61039a565b6040516101bc9190610d67565b60405180910390f35b6101cd6103df565b6040516101da9190610c36565b60405180910390f35b6101fd60048036038101906101f89190610ce7565b61046f565b60405161020a9190610d3f565b60405180910390f35b61022d60048036038101906102289190610ce7565b6104e4565b60405161023a9190610d3f565b60405180910390f35b61025d60048036038101906102589190610e2f565b610657565b60405161026a9190610d67565b60405180910390f35b60606003805461028290610e9a565b80601f01602080910402602001604051908101604052809291908181526020018280546102ae90610e9a565b80156102f95780601f106102d0576101008083540402835291602001916102f9565b820191905f5260205f20905b8154815290600101906020018083116102dc57829003601f168201915b5050505050905090565b5f5f61030d6106d9565b905061031a8185856106e0565b600191505092915050565b5f600254905090565b5f5f6103386106d9565b90506103458582856108a3565b61035085858561092e565b60019150509392505050565b5f6012905090565b5f5f61036e6106d9565b905061038f8185856103808589610657565b61038a9190610ef7565b6106e0565b600191505092915050565b5f5f5f8373ffffffffffffffffffffffffffffffffffffffff1673ffffffffffffffffffffffffffffffffffffffff1681526020019081526020015f20549050919050565b6060600480546103ee90610e9a565b80601f016020809104026020016040519081016040528092919081815260200182805461041a90610e9a565b80156104655780601f1061043c57610100808354040283529160200191610465565b820191905f5260205f20905b81548152906001019060200180831161044857829003601f168201915b5050505050905090565b5f5f6104796106d9565b90505f6104868286610657565b9050838110156104cb576040517f08c379a00000000000000000000000000000000000000000000000000000000081526004016104c290610f9a565b60405180910390fd5b6104d882868684036106e0565b60019250505092915050565b5f6104ef8383610b9a565b505f8373ffffffffffffffffffffffffffffffffffffffff163b111561064d578273ffffffffffffffffffffffffffffffffffffffff16631035fb5c33846040518363ffffffff1660e01b815260040161054a929190610fc7565b6020604051808303815f875af192505050801561058557506040513d601f19601f820116820180604052508101906105829190611043565b60015b6105c4576040517f08c379a00000000000000000000000000000000000000000000000000000000081526004016105bb906110b8565b60405180910390fd5b631035fb5c60e01b7bffffffffffffffffffffffffffffffffffffffffffffffffffffffff1916817bffffffffffffffffffffffffffffffffffffffffffffffffffffffff19161461064b576040517f08c379a000000000000000000000000000000000000000000000000000000000815260040161064290611120565b60405180910390fd5b505b6001905092915050565b5f60015f8473ffffffffffffffffffffffffffffffffffffffff1673ffffffffffffffffffffffffffffffffffffffff1681526020019081526020015f205f8373ffffffffffffffffffffffffffffffffffffffff1673ffffffffffffffffffffffffffffffffffffffff1681526020019081526020015f2054905092915050565b5f33905090565b5f73ffffffffffffffffffffffffffffffffffffffff168373ffffffffffffffffffffffffffffffffffffffff160361074e576040517f08c379a0000000000000000000000000000000000000000000000000000000008152600401610745906111ae565b60405180910390fd5b5f73ffffffffffffffffffffffffffffffffffffffff168273ffffffffffffffffffffffffffffffffffffffff16036107bc576040517f08c379a00000000000000000000000000000000000000000000000000000000081526004016107b39061123c565b60405180910390fd5b8060015f8573ffffffffffffffffffffffffffffffffffffffff1673ffffffffffffffffffffffffffffffffffffffff1681526020019081526020015f205f8473ffffffffffffffffffffffffffffffffffffffff1673ffffffffffffffffffffffffffffffffffffffff1681526020019081526020015f20819055508173ffffffffffffffffffffffffffffffffffffffff168373ffffffffffffffffffffffffffffffffffffffff167f8c5be1e5ebec7d5bd14f71427d1e84f3dd0314c0f7b2291e5b200ac8c7c3b925836040516108969190610d67565b60405180910390a3505050565b5f6108ae8484610657565b90507fffffffffffffffffffffffffffffffffffffffffffffffffffffffffffffffff8114610928578181101561091a576040517f08c379a0000000000000000000000000000000000000000000000000000000008152600401610911906112a4565b60405180910390fd5b61092784848484036106e0565b5b50505050565b5f73ffffffffffffffffffffffffffffffffffffffff168373ffffffffffffffffffffffffffffffffffffffff160361099c576040517f08c379a000000000000000000000000000000000000000000000000000000000815260040161099390611332565b60405180910390fd5b5f73ffffffffffffffffffffffffffffffffffffffff168273ffffffffffffffffffffffffffffffffffffffff1603610a0a576040517f08c379a0000000000000000000000000000000000000000000000000000000008152600401610a01906113c0565b60405180910390fd5b610a15838383610bbc565b5f5f5f8573ffffffffffffffffffffffffffffffffffffffff1673ffffffffffffffffffffffffffffffffffffffff1681526020019081526020015f2054905081811015610a98576040517f08c379a0000000000000000000000000000000000000000000000000000000008152600401610a8f9061144e565b60405180910390fd5b8181035f5f8673ffffffffffffffffffffffffffffffffffffffff1673ffffffffffffffffffffffffffffffffffffffff1681526020019081526020015f2081905550815f5f8573ffffffffffffffffffffffffffffffffffffffff1673ffffffffffffffffffffffffffffffffffffffff1681526020019081526020015f205f82825401925050819055508273ffffffffffffffffffffffffffffffffffffffff168473ffffffffffffffffffffffffffffffffffffffff167fddf252ad1be2c89b69c2b068fc378daa952ba7f163c4a11628f55a4df523b3ef84604051610b819190610d67565b60405180910390a3610b94848484610bc1565b50505050565b5f5f610ba46106d9565b9050610bb181858561092e565b600191505092915050565b505050565b505050565b5f81519050919050565b5f82825260208201905092915050565b8281835e5f83830152505050565b5f601f19601f8301169050919050565b5f610c0882610bc6565b610c128185610bd0565b9350610c22818560208601610be0565b610c2b81610bee565b840191505092915050565b5f6020820190508181035f830152610c4e8184610bfe565b905092915050565b5f5ffd5b5f73ffffffffffffffffffffffffffffffffffffffff82169050919050565b5f610c8382610c5a565b9050919050565b610c9381610c79565b8114610c9d575f5ffd5b50565b5f81359050610cae81610c8a565b92915050565b5f819050919050565b610cc681610cb4565b8114610cd0575f5ffd5b50565b5f81359050610ce181610cbd565b92915050565b5f5f60408385031215610cfd57610cfc610c56565b5b5f610d0a85828601610ca0565b9250506020610d1b85828601610cd3565b9150509250929050565b5f8115159050919050565b610d3981610d25565b82525050565b5f602082019050610d525f830184610d30565b92915050565b610d6181610cb4565b82525050565b5f602082019050610d7a5f830184610d58565b92915050565b5f5f5f60608486031215610d9757610d96610c56565b5b5f610da486828701610ca0565b9350506020610db586828701610ca0565b9250506040610dc686828701610cd3565b9150509250925092565b5f60ff82169050919050565b610de581610dd0565b82525050565b5f602082019050610dfe5f830184610ddc565b92915050565b5f60208284031215610e1957610e18610c56565b5b5f610e2684828501610ca0565b91505092915050565b5f5f60408385031215610e4557610e44610c56565b5b5f610e5285828601610ca0565b9250506020610e6385828601610ca0565b9150509250929050565b7f4e487b71000000000000000000000000000000000000000000000000000000005f52602260045260245ffd5b5f6002820490506001821680610eb157607f821691505b602082108103610ec457610ec3610e6d565b5b50919050565b7f4e487b71000000000000000000000000000000000000000000000000000000005f52601160045260245ffd5b5f610f0182610cb4565b9150610f0c83610cb4565b9250828201905080821115610f2457610f23610eca565b5b92915050565b7f45524332303a2064656372656173656420616c6c6f77616e63652062656c6f775f8201527f207a65726f000000000000000000000000000000000000000000000000000000602082015250565b5f610f84602583610bd0565b9150610f8f82610f2a565b604082019050919050565b5f6020820190508181035f830152610fb181610f78565b9050919050565b610fc181610c79565b82525050565b5f604082019050610fda5f830185610fb8565b610fe76020830184610d58565b9392505050565b5f7fffffffff0000000000000000000000000000000000000000000000000000000082169050919050565b61102281610fee565b811461102c575f5ffd5b50565b5f8151905061103d81611019565b92915050565b5f6020828403121561105857611057610c56565b5b5f6110658482850161102f565b91505092915050565b7f4661696c656420746f2063616c6c206f6e546f6b656e526563656976656400005f82015250565b5f6110a2601e83610bd0565b91506110ad8261106e565b602082019050919050565b5f6020820190508181035f8301526110cf81611096565b9050919050565b7f496e76616c6964206f6e546f6b656e526563656976656420726573706f6e73655f82015250565b5f61110a602083610bd0565b9150611115826110d6565b602082019050919050565b5f6020820190508181035f830152611137816110fe565b9050919050565b7f45524332303a20617070726f76652066726f6d20746865207a65726f206164645f8201527f7265737300000000000000000000000000000000000000000000000000000000602082015250565b5f611198602483610bd0565b91506111a38261113e565b604082019050919050565b5f6020820190508181035f8301526111c58161118c565b9050919050565b7f45524332303a20617070726f766520746f20746865207a65726f2061646472655f8201527f7373000000000000000000000000000000000000000000000000000000000000602082015250565b5f611226602283610bd0565b9150611231826111cc565b604082019050919050565b5f6020820190508181035f8301526112538161121a565b9050919050565b7f45524332303a20696e73756666696369656e7420616c6c6f77616e63650000005f82015250565b5f61128e601d83610bd0565b91506112998261125a565b602082019050919050565b5f6020820190508181035f8301526112bb81611282565b9050919050565b7f45524332303a207472616e736665722066726f6d20746865207a65726f2061645f8201527f6472657373000000000000000000000000000000000000000000000000000000602082015250565b5f61131c602583610bd0565b9150611327826112c2565b604082019050919050565b5f6020820190508181035f83015261134981611310565b9050919050565b7f45524332303a207472616e7366657220746f20746865207a65726f20616464725f8201527f6573730000000000000000000000000000000000000000000000000000000000602082015250565b5f6113aa602383610bd0565b91506113b582611350565b604082019050919050565b5f6020820190508181035f8301526113d78161139e565b9050919050565b7f45524332303a207472616e7366657220616d6f756e74206578636565647320625f8201527f616c616e63650000000000000000000000000000000000000000000000000000602082015250565b5f611438602683610bd0565b9150611443826113de565b604082019050919050565b5f6020820190508181035f8301526114658161142c565b905091905056fea2646970667358221220dc50286e4b0704da1f1531955ecb7177c1840a47da9d8962c5f95c99811f62c464736f6c634300081c0033","linkReferences":{}},"methodIdentifiers":{"balances(address)":"27e235e3","deposit(uint256)":"b6b55f25","flashLoan(uint256)":"9ab603b9","isSolved()":"64d98f6e","token()":"fc0c546a","withdraw(uint256)":"2e1a7d4d"},"id":9}