{"abi":[{"type":"function","name":"challenge","inputs":[],"outputs":[{"name":"","type":"address","internalType":"contract Challenge"}],"stateMutability":"view"},{"type":"function","name":"isReentrant","inputs":[],"outputs":[{"name":"","type":"bool","internalType":"bool"}],"stateMutability":"view"},{"type":"function","name":"onTokenReceived","inputs":[{"name":"","type":"address","internalType":"address"},{"name":"","type":"uint256","internalType":"uint256"}],"outputs":[{"name":"","type":"bytes4","internalType":"bytes4"}],"stateMutability":"nonpayable"},{"type":"function","name":"solve","inputs":[{"name":"_challenge","type":"address","internalType":"address"}],"outputs":[],"stateMutability":"nonpayable"},{"type":"function","name":"token","inputs":[],"outputs":[{"name":"","type":"address","internalType":"contract Token"}],"stateMutability":"view"}],"bytecode":{"object":"0x6080604052348015600e575f5ffd5b50610a028061001c5f395ff3fe608060405234801561000f575f5ffd5b5060043610610055575f3560e01c80631035fb5c146100595780635a10731414610089578063b01b29e6146100a5578063d2ef7398146100c3578063fc0c546a146100e1575b5f5ffd5b610073600480360381019061006e9190610675565b6100ff565b60405161008091906106ed565b60405180910390f35b6100a3600480360381019061009e9190610706565b610292565b005b6100ad610588565b6040516100ba919061074b565b60405180910390f35b6100cb61059b565b6040516100d891906107bf565b60405180910390f35b6100e96105bf565b6040516100f691906107f8565b60405180910390f35b5f600160149054906101000a900460ff166102825760015f9054906101000a900473ffffffffffffffffffffffffffffffffffffffff1673ffffffffffffffffffffffffffffffffffffffff1663095ea7b35f5f9054906101000a900473ffffffffffffffffffffffffffffffffffffffff16670de0b6b3a76400006040518363ffffffff1660e01b8152600401610198929190610859565b6020604051808303815f875af11580156101b4573d5f5f3e3d5ffd5b505050506040513d601f19601f820116820180604052508101906101d891906108aa565b505f5f9054906101000a900473ffffffffffffffffffffffffffffffffffffffff1673ffffffffffffffffffffffffffffffffffffffff1663b6b55f25670de0b6b3a76400006040518263ffffffff1660e01b815260040161023a91906108d5565b5f604051808303815f87803b158015610251575f5ffd5b505af1158015610263573d5f5f3e3d5ffd5b5050505060018060146101000a81548160ff0219169083151502179055505b631035fb5c60e01b905092915050565b805f5f6101000a81548173ffffffffffffffffffffffffffffffffffffffff021916908373ffffffffffffffffffffffffffffffffffffffff1602179055505f5f9054906101000a900473ffffffffffffffffffffffffffffffffffffffff1673ffffffffffffffffffffffffffffffffffffffff1663fc0c546a6040518163ffffffff1660e01b8152600401602060405180830381865afa15801561033a573d5f5f3e3d5ffd5b505050506040513d601f19601f8201168201806040525081019061035e9190610929565b60015f6101000a81548173ffffffffffffffffffffffffffffffffffffffff021916908373ffffffffffffffffffffffffffffffffffffffff1602179055505f5f9054906101000a900473ffffffffffffffffffffffffffffffffffffffff1673ffffffffffffffffffffffffffffffffffffffff16639ab603b9670de0b6b3a76400006040518263ffffffff1660e01b81526004016103fe91906108d5565b5f604051808303815f87803b158015610415575f5ffd5b505af1158015610427573d5f5f3e3d5ffd5b505050505f5f9054906101000a900473ffffffffffffffffffffffffffffffffffffffff1673ffffffffffffffffffffffffffffffffffffffff16632e1a7d4d670de0b6b3a76400006040518263ffffffff1660e01b815260040161048c91906108d5565b5f604051808303815f87803b1580156104a3575f5ffd5b505af11580156104b5573d5f5f3e3d5ffd5b505050505f5f9054906101000a900473ffffffffffffffffffffffffffffffffffffffff1673ffffffffffffffffffffffffffffffffffffffff166364d98f6e6040518163ffffffff1660e01b8152600401602060405180830381865afa158015610522573d5f5f3e3d5ffd5b505050506040513d601f19601f8201168201806040525081019061054691906108aa565b610585576040517f08c379a000000000000000000000000000000000000000000000000000000000815260040161057c906109ae565b60405180910390fd5b50565b600160149054906101000a900460ff1681565b5f5f9054906101000a900473ffffffffffffffffffffffffffffffffffffffff1681565b60015f9054906101000a900473ffffffffffffffffffffffffffffffffffffffff1681565b5f5ffd5b5f73ffffffffffffffffffffffffffffffffffffffff82169050919050565b5f610611826105e8565b9050919050565b61062181610607565b811461062b575f5ffd5b50565b5f8135905061063c81610618565b92915050565b5f819050919050565b61065481610642565b811461065e575f5ffd5b50565b5f8135905061066f8161064b565b92915050565b5f5f6040838503121561068b5761068a6105e4565b5b5f6106988582860161062e565b92505060206106a985828601610661565b9150509250929050565b5f7fffffffff0000000000000000000000000000000000000000000000000000000082169050919050565b6106e7816106b3565b82525050565b5f6020820190506107005f8301846106de565b92915050565b5f6020828403121561071b5761071a6105e4565b5b5f6107288482850161062e565b91505092915050565b5f8115159050919050565b61074581610731565b82525050565b5f60208201905061075e5f83018461073c565b92915050565b5f819050919050565b5f61078761078261077d846105e8565b610764565b6105e8565b9050919050565b5f6107988261076d565b9050919050565b5f6107a98261078e565b9050919050565b6107b98161079f565b82525050565b5f6020820190506107d25f8301846107b0565b92915050565b5f6107e28261078e565b9050919050565b6107f2816107d8565b82525050565b5f60208201905061080b5f8301846107e9565b92915050565b61081a81610607565b82525050565b5f819050919050565b5f61084361083e61083984610820565b610764565b610642565b9050919050565b61085381610829565b82525050565b5f60408201905061086c5f830185610811565b610879602083018461084a565b9392505050565b61088981610731565b8114610893575f5ffd5b50565b5f815190506108a481610880565b92915050565b5f602082840312156108bf576108be6105e4565b5b5f6108cc84828501610896565b91505092915050565b5f6020820190506108e85f83018461084a565b92915050565b5f6108f882610607565b9050919050565b610908816108ee565b8114610912575f5ffd5b50565b5f81519050610923816108ff565b92915050565b5f6020828403121561093e5761093d6105e4565b5b5f61094b84828501610915565b91505092915050565b5f82825260208201905092915050565b7f21736f6c766564000000000000000000000000000000000000000000000000005f82015250565b5f610998600783610954565b91506109a382610964565b602082019050919050565b5f6020820190508181035f8301526109c58161098c565b905091905056fea2646970667358221220b0fde6d20b83fa805200b1b6955dfa350c4ad8a2b6fb62bfc6d645f9c2e9137264736f6c634300081c0033","linkReferences":{}},"methodIdentifiers":{"challenge()":"d2ef7398","isReentrant()":"b01b29e6","onTokenReceived(address,uint256)":"1035fb5c","solve(address)":"5a107314","token()":"fc0c546a"},"id":8}